:10000000740600202D170000251700002717000098
:100010002917000029170000291700000000000020
:100020000000000000000000000000002917000090
:100030002917000000000000291700002917000000
:1000400029170000291700002917000029170000B0
:1000500029170000291700002917000029170000A0
:100060002917000029170000291700002917000090
:100070002917000029170000291700002917000080
:100080002917000029170000291700002917000070
:100090002917000029170000291700002917000060
:1000A0002917000029170000291700002917000050
:1000B0002917000029170000291700002917000040
:1000C0002917000029170000291700002917000030
:1000D0002917000029170000291700002917000020
:1000E0002917000000000000000000002917000090
:1000F0002917000029170000291700002917000000
:1001000029170000291700002917000029170000EF
:10011000000000000000000029170000291700005F
:1001200029170000291700002917000029170000CF
:1001300029170000291700002917000029170000BF
:1001400000000000000000000000000000000000AF
:10015000291700002917000029170000291700009F
:10016000000000000000000000000000000000008F
:10017000000000000000000000000000000000007F
:10018000000000000000000000000000000000006F
:10019000000000000000000000000000000000005F
:1001A000000000000000000000000000000000004F
:1001B000291700002917000029170000291700003F
:1001C000291700002917000029170000291700002F
:1001D000291700002917000029170000291700001F
:1001E000291700002917000029170000000000004F
:1001F000000000002917000029170000291700003F
:10020000291700002917000000000000000000006E
:1002100029170000291700002917000029170000DE
:1002200029170000291700002917000029170000CE
:1002300029170000291700002917000029170000BE
:1002400029170000291700002917000029170000AE
:10025000291700002917000029170000291700009E
:0C026000291700002917000029170000D2
:1002700010B5054C237833B9044B13B10448AFF3E0
:1002800000800123237010BD5404002000000000F2
:100290004C2E000008B5034B1BB103490348AFF3D4
:1002A000008008BD00000000580400204C2E000013
:1002B00081F0004102E000BF83F0004330B54FEA17
:1002C00041044FEA430594EA050F08BF90EA020F84
:1002D0001FBF54EA000C55EA020C7FEA645C7FEA17
:1002E000655C00F0E2804FEA5454D4EB5555B8BF3A
:1002F0006D420CDD2C4480EA020281EA030382EAAB
:10030000000083EA010180EA020281EA0303362D3C
:1003100088BF30BD11F0004F4FEA01314FF4801C0F
:100320004CEA113102D0404261EB410113F0004F21
:100330004FEA03334CEA133302D0524263EB4303D8
:1003400094EA050F00F0A780A4F10104D5F1200E76
:100350000DDB02FA0EFC22FA05F2801841F10001D1
:1003600003FA0EF2801843FA05F359410EE0A5F1A5
:1003700020050EF1200E012A03FA0EFC28BF4CF0D6
:10038000020C43FA05F3C01851EBE37101F000458C
:1003900007D54FF0000EDCF1000C7EEB00006EEB99
:1003A0000101B1F5801F1BD3B1F5001F0CD3490823
:1003B0005FEA30004FEA3C0C04F101044FEA44527A
:1003C00012F5800F80F09A80BCF1004F08BF5FEA01
:1003D000500C50F1000041EB045141EA050130BDE1
:1003E0005FEA4C0C404141EB010111F4801FA4F184
:1003F0000104E9D191F0000F04BF01460020B1FAD9
:1004000081F308BF2033A3F10B03B3F120020CDA10
:100410000C3208DD02F1140CC2F10C0201FA0CF0EE
:1004200021FA02F10CE002F11402D8BFC2F1200C53
:1004300001FA02F120FA0CFCDCBF41EA0C01904009
:10044000E41AA2BF01EB0451294330BD6FEA040452
:100450001F3C1CDA0C340EDC04F11404C4F120023D
:1004600020FA04F001FA02F340EA030021FA04F34F
:1004700045EA030130BDC4F10C04C4F1200220FAA6
:1004800002F001FA04F340EA0300294630BD21FAE4
:1004900004F0294630BD94F0000F83F4801306BFAA
:1004A00081F480110134013D4EE77FEA645C18BF9E
:1004B0007FEA655C29D094EA050F08BF90EA020F35
:1004C00005D054EA000C04BF1946104630BD91EA2D
:1004D000030F1EBF0021002030BD5FEA545C05D130
:1004E0004000494128BF41F0004130BD14F580046F
:1004F0003CBF01F5801130BD01F0004545F0FE41E3
:1005000041F470014FF0000030BD7FEA645C1ABF17
:10051000194610467FEA655C1CBF0B46024650EA4E
:10052000013406BF52EA033591EA030F41F400217A
:1005300030BD00BF90F0000F04BF0021704730B500
:100540004FF4806404F132044FF000054FF00001D5
:1005500050E700BF90F0000F04BF0021704730B596
:100560004FF4806404F1320410F0004548BF40426B
:100570004FF000013EE700BF42004FEAE2014FEAC0
:1005800031014FEA02701FBF12F07F4393F07F4F9B
:1005900081F06051704732F07F4208BF704793F09E
:1005A0007F4F04BF41F40021704730B54FF46074B1
:1005B00001F0004521F000411CE700BF50EA0102B4
:1005C00008BF704730B54FF000050AE050EA01025D
:1005D00008BF704730B511F0004502D5404261EBCD
:1005E00041014FF4806404F132045FEA915C3FF40E
:1005F000D8AE4FF003025FEADC0C18BF03325FEAAB
:10060000DC0C18BF033202EBDC02C2F1200300FA5B
:1006100003FC20FA02F001FA03FE40EA0E0021FA80
:1006200002F11444BDE600BF70B54FF0FF0C4CF46E
:10063000E06C1CEA11541DBF1CEA135594EA0C0F20
:1006400095EA0C0F00F0DEF82C4481EA030621EA5B
:100650004C5123EA4C5350EA013518BF52EA033596
:1006600041F4801143F4801338D0A0FB02CE4FF048
:100670000005E1FB02E506F00042E0FB03E54FF078
:100680000006E1FB03569CF0000F18BF4EF0010E70
:10069000A4F1FF04B6F5007F64F5407404D25FEA6C
:1006A0004E0E6D4146EB060642EAC62141EA55511F
:1006B0004FEAC52040EA5E504FEACE2EB4F1FD0C61
:1006C00088BFBCF5E06F1ED8BEF1004F08BF5FEADF
:1006D000500E50F1000041EB045170BD06F0004691
:1006E00046EA010140EA020081EA0301B4EB5C043E
:1006F000C2BFD4EB0C0541EA045170BD41F4801136
:100700004FF0000E013C00F3AB8014F1360FDEBF5A
:10071000002001F0004170BDC4F10004203C35DA36
:100720000C341BDC04F11404C4F1200500FA05F3B9
:1007300020FA04F001FA05F240EA020001F000425A
:1007400021F0004110EBD37021FA04F642EB0601D0
:100750005EEA430E08BF20EAD37070BDC4F10C04FA
:10076000C4F1200500FA04F320FA05F001FA04F2BE
:1007700040EA020001F0004110EBD37041F10001AA
:100780005EEA430E08BF20EAD37070BDC4F12005B5
:1007900000FA05F24EEA020E20FA04F301FA05F21D
:1007A00043EA020321FA04F001F0004121FA04F2C5
:1007B00020EA020000EBD3705EEA430E08BF20EA95
:1007C000D37070BD94F0000F0FD101F000464000CF
:1007D00041EB010111F4801F08BF013CF7D041EA51
:1007E000060195F0000F18BF704703F00046520055
:1007F00043EB030313F4801F08BF013DF7D043EA26
:100800000603704794EA0C0F0CEA135518BF95EADB
:100810000C0F0CD050EA410618BF52EA4306D1D162
:1008200081EA030101F000414FF0000070BD50EA81
:10083000410606BF1046194652EA430619D094EA0B
:100840000C0F02D150EA013613D195EA0C0F05D1F5
:1008500052EA03361CBF104619460AD181EA030149
:1008600001F0004141F0FE4141F470014FF0000001
:1008700070BD41F0FE4141F4780170BD70B54FF09C
:10088000FF0C4CF4E06C1CEA11541DBF1CEA13551C
:1008900094EA0C0F95EA0C0F00F0A7F8A4EB0504FE
:1008A00081EA030E52EA03354FEA013100F08880F5
:1008B0004FEA03334FF0805545EA131343EA1263BE
:1008C0004FEA022245EA111545EA10654FEA002673
:1008D0000EF000419D4208BF964244F1FD0404F52C
:1008E000407402D25B084FEA3202B61A65EB030588
:1008F0005B084FEA32024FF480104FF4002CB6EB45
:10090000020E75EB030E22BFB61A754640EA0C00C4
:100910005B084FEA3202B6EB020E75EB030E22BF04
:10092000B61A754640EA5C005B084FEA3202B6EB45
:10093000020E75EB030E22BFB61A754640EA9C0004
:100940005B084FEA3202B6EB020E75EB030E22BFD4
:10095000B61A754640EADC0055EA060E18D04FEA92
:10096000051545EA16754FEA06164FEAC30343EA32
:1009700052734FEAC2025FEA1C1CC0D111F4801FFF
:100980000BD141EA00014FF000004FF0004CB6E7F8
:1009900011F4801F04BF01430020B4F1FD0C88BF97
:1009A000BCF5E06F3FF6AFAEB5EB030C04BFB6EBA2
:1009B000020C5FEA500C50F1000041EB045170BD95
:1009C0000EF0004E4EEA113114EB5C04C2BFD4EBC2
:1009D0000C0541EA045170BD41F480114FF0000E46
:1009E000013C90E645EA060E8DE60CEA135594EAC2
:1009F0000C0F08BF95EA0C0F3FF43BAF94EA0C0FC5
:100A00000AD150EA01347FF434AF95EA0C0F7FF439
:100A100025AF104619462CE795EA0C0F06D152EA8D
:100A200003353FF4FDAE1046194622E750EA410671
:100A300018BF52EA43067FF4C5AE50EA41047FF482
:100A40000DAF52EA43057FF4EBAE12E74FF0FF3CE7
:100A500006E000BF4FF0010C02E000BF4FF0010CB8
:100A60004DF804CD4FEA410C7FEA6C5C4FEA430C31
:100A700018BF7FEA6C5C1BD001B050EA410C0CBF80
:100A800052EA430C91EA030F02BF90EA020F0020E2
:100A9000704710F1000F91EA030F58BF994208BF49
:100AA00090422CBFD8176FEAE37040F00100704706
:100AB0004FEA410C7FEA6C5C02D150EA013C07D15D
:100AC0004FEA430C7FEA6C5CD6D152EA033CD3D0A8
:100AD0005DF8040B704700BF8446104662468C46A2
:100AE0001946634600E000BF01B5FFF7B7FF0028D5
:100AF00048BF10F1000F01BD4DF808EDFFF7F4FFFE
:100B00000CBF012000205DF808FB00BF4DF808ED88
:100B1000FFF7EAFF34BF012000205DF808FB00BFAB
:100B20004DF808EDFFF7E0FF94BF012000205DF8CD
:100B300008FB00BF4DF808EDFFF7CEFF94BF012082
:100B400000205DF808FB00BF4DF808EDFFF7C4FF7B
:100B500034BF012000205DF808FB00BF4FEA410CC4
:100B60007FEA6C5C02D150EA013C0AD14FEA430CA7
:100B70007FEA6C5C02D152EA033C02D14FF00000E4
:100B800070474FF0010070474FEA410212F5001222
:100B900015D211D56FF47873B3EB625212D94FEAC4
:100BA000C12343F0004343EA505311F0004F23FAAE
:100BB00002F018BF404270474FF00000704750EA03
:100BC000013005D111F0004008BF6FF000407047C0
:100BD0004FF00000704700BF10B5064C236843F08B
:100BE00004032360242000F0B1F82368002323606D
:100BF00010BD00BF1040004008B500F00F00044BCE
:100C00001860C900034B1960FFF7E6FF08BD00BF7D
:100C1000FC5300402040004038B504460D46000912
:100C2000FFF7EAFF294604F00F00FFF7E5FF38BDA4
:100C300008B500210120FFF7EFFF08BD08B500222D
:100C4000134602E00133DBB201328242FADB09B122
:100C50004033DBB2002143F08000FFF7DDFF08BD29
:100C600008B500210220FFF7D7FF08BD38B50024E2
:100C7000134B1C60103308251D601C6021460320A7
:100C8000FFF7BAFF21460320FFF7B6FF21460320F6
:100C9000FFF7B2FF21460220FFF7AEFF21462820D2
:100CA000FFF7BAFF21462846FFF7B6FF214601208D
:100CB000FFF7B2FF21460620FFF7AEFF38BD00BFA9
:100CC00010400040054B00221A6005496FF07F403C
:100CD000086004310A6005221A60704710E000E0E5
:100CE00014E000E0164B1A6842F000421A601A68DD
:100CF00042F400621A6013490A6822F4F86202F5AD
:100D0000A8620A601A6822F070021A601A6822F457
:100D100000521A601A6842F080421A601A6822F083
:100D2000FE5202F180721A60074B1B6813F0400FED
:100D3000FAD0034A136823F400631360704700BFBE
:100D400070E00F4060E00F4050E00F400138054B6D
:100D50001860043300221A60034B1B6813F4803FB1
:100D6000FAD0704714E000E010E000E00B4A13688E
:100D700043F0010313600A4B1B6813F0010FFAD014
:100D80000C22084B1A60002307490B6001F584719F
:100D90000B6004310B60054B1A60704708E60F408A
:100DA00008EA0F4000440040204400401C45004039
:100DB0000B4A136843F0020313600A4B1B6813F0DD
:100DC000020FFAD00F22084B1A60002307490B606C
:100DD00001F584710B6004310B60054B1A6070479C
:100DE00008E60F4008EA0F4000540040205400403D
:100DF0001C5500400B4A136843F0080313600A4B6C
:100E00001B6813F0080FFAD00F22084B1A6000235A
:100E100007490B6001F584710B6004310B60054BD1
:100E20001A60704708E60F4008EA0F40007400405F
:100E3000207400401C7500400B4A136843F01003F7
:100E400013600A4B1B6813F0100FFAD00023084AF6
:100E500013602032136002F5847213600432136051
:100E6000044B0F221A60704708E60F4008EA0F4053
:100E7000004402401C45024008B5FFF777FFFFF72A
:100E800097FFFFF7B7FFFFF7D7FF08BD10B5044680
:100E900001210020FFF7D2FE14B1012C25D010BD96
:100EA00001215420FFF7B8FE01215220FFF7B4FEC4
:100EB00001215920FFF7B0FE01212020FFF7ACFEF1
:100EC00001214120FFF7A8FE01214720FFF7A4FEE2
:100ED00001214120FFF7A0FE01214920FFF79CFEE0
:100EE00001214E20FFF798FED9E701214520FFF7A9
:100EF00093FE01214E20FFF78FFE01215420FFF7C2
:100F00008BFE01214520FFF787FE01215220FFF7CC
:100F100083FE01212020FFF77FFE01215020FFF7F3
:100F20007BFE01214120FFF777FE01215320FFF7CF
:100F300073FE01215320FFF76FFE01215720FFF7B9
:100F40006BFE01214F20FFF767FE01215220FFF7C2
:100F500063FE01214420FFF75FFEA0E700000000D0
:100F60002DE9F04F8FB082460C4617469946DDF8C2
:100F7000608003230C930D910D4600220023CDE9E0
:100F80000A230022164606E001260C9BB34225DB0D
:100F90000C960D950135002A40F03881AF422BDBCD
:100FA0001AF805302B2B07D02D2B05D02A2B03D078
:100FB0002F2B01D05E2BEDD12B2BE5D02D2B07D085
:100FC0002A2B07D02F2B07D05E2BDED10326DCE7A0
:100FD0000126DAE70226D8E70226D6E7CDF8008018
:100FE0004B463A460D9901315046FFF7B9FFCDE91E
:100FF0000A012F460122CDE72B2500220023CDE94F
:101000000223CDE906234FF0FF33059372E0059BE1
:10101000013305931846FFF79DFA024601F100439C
:101020000020854900F06CFCCDE908013078FFF71D
:1010300081FA0022814BFFF73FF902460B46DDE9BA
:101040000801FFF7F1FA02460B46DDE90201FFF75E
:1010500035F9CDE9020102E0BBF12E0F7DD03378E6
:101060002B2B09D02D2B07D02A2B05D02F2B03D0CB
:101070005E2B01D0A7423CD1A74270D02D2D00F0AD
:101080009F8000F28F802A2D00F0A3802B2D07D1A6
:10109000DDE90223DDE90601FFF710F9CDE90601DC
:1010A0000022674BDDE90201FFF73AFDB0B960A30A
:1010B000D3E90023DDE90201FFF73CFD70B900220E
:1010C0005F4BDDE90601FFF72BFD38B958A3D3E9E3
:1010D0000023DDE90601FFF72DFD10B10123C8F85B
:1010E0000030357800220023CDE902234FF0FF3392
:1010F00005930134A742C0F29480D9F80030002B48
:1011000040F08F80D8F80020002A40F08A800AEB57
:1011100004061AF804B0ABF13003DBB2092B9BD8FC
:10112000059BB3F1FF3F7FF472AF0022424BDDE934
:101130000201FFF779FACDE902015846FFF7FAF903
:1011400000223E4BFFF7B8F802460B46DDE90201EC
:10115000FFF7B4F8CDE9020181E705927FE72B2B79
:101160000CD02D2B0FD02A2B12D02F2B15D05E2B6D
:1011700084D1DDE90A23CDE902237FE7DDE90A23F3
:10118000CDE902237AE7DDE90A23CDE9022375E7F9
:10119000DDE90A23CDE9022370E7DDE90A23CDE981
:1011A00002236BE72F2D1DD05E2D7FF479AFDDE993
:1011B0000223DDE9060100F0A3FBCDE906016FE79C
:1011C000DDE90223DDE90601FFF776F8CDE9060146
:1011D00066E7DDE90223DDE90601FFF725FACDE93F
:1011E00006015DE700220023DDE90201FFF784FC30
:1011F00040B9DDE90223DDE90601FFF73FFBCDE958
:1012000006014DE70123C9F8003049E72B250022EC
:101210000023CDE90223CDE906234FF0FF330593E8
:1012200068E7DDE906010FB0BDE8F08FAFF300809D
:101230000000C0FFFFFFDF410000244000004840E5
:101240000000E0C108B5FFF7F3FCFFF709FD01213D
:101250004420FFF7E1FC01214920FFF7DDFC0121DB
:101260005620FFF7D9FC01212020FFF7D5FC0121F2
:101270004220FFF7D1FC01215920FFF7CDFC0121CD
:101280002020FFF7C9FC01213020FFF7C5FC012118
:101290002020FFF7C1FC01214520FFF7BDFC012103
:1012A0005220FFF7B9FC01215220FFF7B5FC0121C4
:1012B0004F20FFF7B1FC01215220FFF7ADFC08BD24
:1012C00008B5FFF7B5FCFFF7CBFC01214120FFF784
:1012D000A3FC01214E20FFF79FFC01215320FFF7C3
:1012E0009BFC01215720FFF797FC01214520FFF7C8
:1012F00093FC01215220FFF78FFC01212020FFF7F2
:101300008BFC01215420FFF787FC01214F20FFF7C0
:1013100083FC01214F20FFF77FFC01212020FFF7F4
:101320007BFC01214C20FFF777FC01214120FFF7D6
:1013300073FC01215220FFF76FFC01214720FFF7CA
:101340006BFC01214520FFF767FC08BD2DE9F04744
:1013500082B005460C460022002328462146FFF7AE
:10136000D5FB90B94FF0000A4FF00E086A462846A8
:10137000214600F003FA06460F46DDE90001FFF7BB
:1013800003FC05460346002415E004F10044012156
:101390000020FFF753FC01212D20FFF73DFC4FF00B
:1013A000010A4FF00D08E1E72F4A82FB0312DB1719
:1013B000C3EBA20301340BB1A045F5DA24B1A0457B
:1013C0000CDB4FF0000827E001215046FFF736FC08
:1013D00001213020FFF720FC01341FE0FFF770FFF0
:1013E0003EE0A4EB0800013801215044FFF726FC41
:1013F0001D4B83FB0523E817C0EBA300814600EBE0
:1014000080004300E81AC0B230300121C0B2FFF7BB
:1014100003FC4D4608F101084445E2DC5444012137
:101420002046FFF70BFC01212E20FFF7F5FB0134CE
:1014300014E000220D4B30463946FFF7F5F8002244
:101440000A4B00F0FDF906460F46FFF79DFBC0B2C0
:1014500030300121C0B2FFF7DFFB01340F2CE8DD93
:1014600002B0BDE8F08700BF6766666600002440F2
:1014700038B500244FF0FF3508E02A4B1B6813F005
:10148000010FFAD100250134042C32D0B5F1FF3F11
:1014900034D10123A340244A13600A20FFF756FCED
:1014A000204B1B6813F0010FE7D11E4B1B6813F094
:1014B000020F10D11B4B1B6813F0040F12D1194BF4
:1014C0001B6813F0080FDED0164B1B6813F0080FD3
:1014D000FAD10325D7E7134B1B6813F0020FFAD19B
:1014E0000125D0E70F4B1B6813F0040FFAD102253A
:1014F000C9E7B5F1FF3FC9D10024C7E7013C0B4B59
:101500001B684BB10A4B03EB8505285D532807D0B8
:10151000064B00221A6003E0064B03EB8505285DAD
:1015200038BD00BFFC430240FC7300407004002043
:10153000100000200000002010B582B01C4B1B687A
:1015400001930120FFF7A2FCFFF78AFB002409E0CA
:10155000032C25D00134634204F0030403F0030399
:1015600058BF5C42FFF784FF02AB234403F8040C2E
:1015700001212A20FFF750FB032CE9D19DF804300C
:10158000312BE5D19DF80530322BE1D19DF80630A5
:10159000332BDDD19DF80730342BD9D102B010BDEB
:1015A000FFF746FB0020FFF771FCFFF759FBD1E77F
:1015B000182E000030B58FB0002503950295514BD1
:1015C0001D60FFF735FBFFF74BFB46E0002D4DDDBF
:1015D0006B1E0EAA134413F8283C2B2B3DD02D2B49
:1015E0003BD02A2B39D02F2B37D05E2B35D013464A
:1015F0002B4403F8284C01212046FFF70DFB02ABDA
:10160000009303AB6A1E002104A8FFF7A9FC029B0C
:10161000012B70D0039B012B70D0FFF797FEFFF7D3
:1016200027FF0FB030BD002D24DD013D0EAB2B4454
:10163000002403F8284C21462846FFF7FFFA012131
:101640002020FFF7E9FA21462846FFF7F7FA04E0E1
:101650002C4A136883F001031360FFF709FF044667
:101660000E2D01DD3D28F8D13D2CAFD0432CD8D034
:10167000442CD8D0532CEBD02B2C18D02D2C16D09A
:101680002A2C14D02F2C12D05E2C10D0A4F13003B1
:10169000DBB2092B01D92E2CDFD10EAB2B4403F882
:1016A000284C01212046FFF7B7FA0135D5E7C5B12F
:1016B0006B1E0EAA134413F8283C2B2BCDD02D2BD8
:1016C000CBD02A2BC9D02F2BC7D05E2BC5D0134629
:1016D0002B4403F8284C01212046FFF79DFA0135E1
:1016E000BBE70EAB2B44302003F8280C0121FFF799
:1016F00093FA0135DCE7FFF7E3FD90E7FFF7A2FD82
:101700008DE700BF7004002008B5FFF7EBFAFFF784
:10171000D9FAFFF7B1FBFFF7A9FAFFF70DFFFFF7C3
:1017200049FFFCE7FEE7FEE7FEE7000008B50D4BCA
:101730000D4A03E011681960043304320B498B42EF
:10174000F8D30C480C494FF000028842B8BF40F86B
:10175000042BFADB064A136843F470031360FFF7A7
:10176000D3FF08BD000000204C2E000054040020D0
:1017700088ED00E054040020980600202DE9F8438D
:10178000C1F30A57A7F2FF35132D0B46044613DCAD
:10179000002D3DDB294F47FA05F501EA050757EA19
:1017A000000C29D12046194603F00045C2E900018A
:1017B00060462946BDE8F883332D12DCA7F21347B3
:1017C0004FF0FF3525FA07F717EA000E2BD020EA75
:1017D00007040D46C2E900452246FEF76DFDBDE84F
:1017E000F88320461946002403F00045C2E90001B1
:1017F00020462946BDE8F8834FF0000821EA050994
:10180000C2E900894B464246FEF756FDBDE8F88323
:1018100003F00041002006460F4620461946C2E963
:101820000067BDE8F8832046194603F00045C2E989
:10183000000170462946BDE8F88300BFFFFF0F0096
:101840002DE9F04F8BB01D4606460F46144600F0BA
:10185000E1F9294B93F900A0BAF1FF3F8046894690
:1018600035D022462B4620462946FFF777F970BB34
:1018700032463B4630463946FFF770F9834630BB67
:101880000022002320462946FFF736F9F8B11B4B0A
:10189000CDF820B00122CDE90267CDE90445CDE9BC
:1018A0000023BAF1000F17D000220023104619467A
:1018B000FEF7E4FFBAF1020FCDE906010ED101F007
:1018C0000DFA21230360089B83B9DDE906894046B0
:1018D00049460BB0BDE8F08FCDE90667684601F0D8
:1018E000E1F80028EBD0089B002BEED001F0F6F9D0
:1018F000089B0360E9E700BF200000201C2E0000C9
:101900002DE9F04FDFF808938DB006460F461446D8
:101910001D4600F099FA99F90080B8F1FF3FCDE932
:10192000000136D022462B4620462946FFF716F9FD
:10193000834670BB32463B4630463946FFF70EF9C8
:10194000002282460023002840F0A080304639461D
:10195000FFF7D2F810B30022002320462946FFF7F4
:10196000CBF88346002867D00122A24B02920021C7
:101970000022CDF828A0CDE90467CDE90645CDE9E0
:1019800008120393B8F1000F41D09B4C0023CDE91E
:101990000034DDE900010DB0BDE8F08FDDE90001A4
:1019A00001F07AF88046002800F08B804FF0000AA2
:1019B0004FF0000B52465B46DDE90001FFF79CF853
:1019C0000028E6D03046394601F066F80028E0D01D
:1019D0002046294601F060F80028DAD099F9003055
:1019E000844A039204210022022BCDE90467CDE949
:1019F0000645CDE908AB02910A9203D002A801F096
:101A000051F850B901F06AF92223036005E002A8F9
:101A100001F048F8002800F098800A9B1BB101F003
:101A20005DF90A9B0360DDE90834CDE90034DDE9A6
:101A300000010DB0BDE8F08F2046294601F02CF8DA
:101A40000028A6D00022002320462946FFF75EF892
:101A500000289ED0674A99F90030CDF828B00121BE
:101A6000CDE90467CDE90645CDE90212002B71D01E
:101A700062490020022BCDE908016FD101F02EF957
:101A8000212303600A9B002BCDD0C8E720462946BE
:101A9000FFF732F800283FF47CAF01230293564B46
:101AA0005449CDF828B00022B8F1020FCDE90467FF
:101AB000CDE906450391CDE90823A8D1CDE900235E
:101AC00067E73046394600F0E7FF00283FF46EAF85
:101AD0002046294600F0E0FF00283FF467AFDDE92B
:101AE000002310461946FFF739F899F900A000289D
:101AF00066D10323DFF8FCC00A90294620460293F2
:101B000000223F4BCDF80CC0CDE90645CDE9046776
:101B1000FEF78AFD002204460D4600233046394672
:101B2000BAF1000F20D1374F4FF06046CDE908677A
:101B3000FEF7ECFF18BB02A800F0B4FF0028A1D10B
:101B400001F0CCF8222303609CE701F0C7F82123C1
:101B5000036062E700230024CDE9083402A800F006
:101B6000A1FF00288ED189E7274F0026CDE908671D
:101B7000FEF7CCFFA0B9BAF1020FE1D0DBE72046B7
:101B8000294600F097FF22462B46FEF7B5FFA0B985
:101B90001E4B99F900A04FF06042CDE90823EAE717
:101BA0002046294600F086FF22462B46FEF7A4FF7A
:101BB00018B9124B0022CDE9082399F900A0DAE701
:101BC00001220C4BCDF828800292CDE90467CDE9C3
:101BD00006450393BAF1000FBCD000220023104643
:101BE0001946FEF74BFEBAF1020FCDE908013FF4AA
:101BF00045AFB3E7242E00000000F03F0000F0FFE7
:101C00000000E03FFFFFEF470000F07FFFFFEFC75E
:101C1000200000202DE9F04723F0004E5EEA020686
:101C200020D0814E21F00048B04589461ADC56424A
:101C300016437E4F4EEAD676BE42144612D8F04581
:101C40001D4694468246064601F0004716DC13DB2B
:101C5000904211D312D1764BFF0F03EBC703D3E9A8
:101C6000004106E0FEF7E0FC02460B46FEF706FEEA
:101C700004462046BDE8F0870446FAE7B8F5801F21
:101C80003BDB4FEA2853A3F2FF33BEF5801F80F2FF
:101C90008F80BEF1000F40F09F80002C22466549E6
:101CA00004DD5200002A01F1FF31FADC624A93425E
:101CB00070DBC9F3130242F480125F4881425BDBA0
:101CC000C5F3130444F48014581A07E053EA0502DC
:101CD00021D0EA0F02EB43026E000138131BA6EB82
:101CE0000C05F8B1664538BF03F1FF33002BEDDA80
:101CF000F30F03EB42027600EFE7B8F1000F5CD17F
:101D0000BAF1000F52464B4BBFDD5200002A03F1DF
:101D1000FF33FADCB9E7464BFF0F03EBC707D7E900
:101D20000041A6E7664538BF03F1FF33002BBCBF77
:101D30003546134653EA0502EDD04048834208DC9D
:101D4000EA0F02EB4303834201F1FF314FEA4505FD
:101D5000F6DD394A91424EDA521A142A55DC01F264
:101D60001E41D54003FA01F143FA02F2174341EA5A
:101D7000050339461C467CE7401A1F2826DC01F281
:101D80001E450EFA00FE24FA05F504FA00FC45EAA9
:101D90000E0499E7D61A1F2E27DC03F21E4208FA1A
:101DA00006F82AFA02F20AFA06F642EA080284E77C
:101DB0004FEA2E51A1F2FF3178E71F4B4FEAC822BC
:101DC0005200002A03F1FF33FADC5EE71C4D6D1A66
:101DD000AC404FF0000C77E717494FEACE22520093
:101DE000002A01F1FF31FADC60E7154AD21A0AFA3B
:101DF00002F2002661E7A3F5801301F2FF311F43D1
:101E000047EA01532C46194633E71F2A07DC01F243
:101E10001E4103FA01F125FA02F30B43A9E7084A30
:101E2000511A0B41A5E700BFFFFFEF7F0000F07FD5
:101E3000282E0000EDFBFFFF02FCFFFFFFFF0F005D
:101E4000E2FBFFFF000000002DE9F04F23F000450A
:101E500055EA020493B00DD0794E21F00044B4420B
:101E60000F4682460FDD04F1404404F5801454EA25
:101E70000A035BD1734C0023CDE90034DDE9000196
:101E800013B0BDE8F08F984694464ED0B542EADCD8
:101E90006B4EB54266D0002F8B468146CDE90223BA
:101EA00064DB0026BCF1000F0ED1654B9D4246D08D
:101EB000644B9D4200F09780B8F1804F00F0B280F3
:101EC000614B984500F0CC834846594600F0E0FD50
:101ED000CDE90001BAF1000F06D1002C60D0594BBA
:101EE00027F040429A425BD0FF0F013F56EA0703BA
:101EF00000F08280554B9D4240F3B08003F10473A3
:101F00009D4240F34184524B9C4240F38280B8F1A1
:101F1000000F40F3828048A3D3E9002310461946FE
:101F2000FEF782FBCDE90001A8E728B1494813B0CC
:101F3000BDE8F04F00F0B8BDA542F7DCA8E704F11A
:101F4000404303F5801353EA0A0393D0404B9C426D
:101F500040F39083B8F1000F5FDBDDE90234CDE997
:101F600000348BE7BCF1000F95D07CE73A4B9D42E3
:101F700037DCA3F154739D4293DD2B15A3F2FF339D
:101F8000142B40F3E983C3F134032CFA03F202FA71
:101F900003F3634585D102F00102C2F1020681E735
:101FA000B8F1000F07DADDE9002300202549FEF72C
:101FB00065FCCDE90001002FBFF660AF04F140449D
:101FC00004F5801454EA060300F03C84012E7FF4EB
:101FD00055AFDDE90045224605F10043CDE9002378
:101FE0004CE702265EE7B8F1000FC0F24F83484687
:101FF0005946CDE9000141E74A4648465B46594605
:10200000FEF75AF902460B46FEF738FCCDE900010F
:1020100034E7B8F1000FFFF67EAF00230024CDE9CE
:1020200000342BE74A4648465B465946FEF7FCFA21
:10203000CDE9000122E700BF9C7500883CE4377EB3
:102040000000F07F0000F03F0000E03F0000E041B2
:10205000FFFFEF3F202E0000FFFF3F43B4F5801F3E
:1020600080F28F83DDE900010022CF4BFEF7DCFA1E
:10207000CDE900010C466FF0340C2315CB4DC4F3B1
:102080001302A3F2FF3342F07F5403EB0C01AA4288
:102090000B9144F4401440F36F83C54B9A4240F3D4
:1020A000F38300220023CDE9082301310B91A4F52D
:1020B0008014CDE91023BF4B0022CDE90623002573
:1020C000DDE90001DDE9062321468246FEF7F4F84A
:1020D000A346DDE906238046894650462146CDE9E0
:1020E0000CABFEF7EBF802460B460020B149FEF7B9
:1020F000C5FB0A460146CDE90E1213464946024683
:102100004046FEF791FA631043F0005382468B4637
:1021100003F500238C46CDE904AB5919D3460023BF
:10212000CDE900BC0093DDE900AB002004460D467C
:1021300002460B4650465946FEF776FA02460B46D3
:1021400040464946FEF7B8F8DDE906238046894651
:1021500020462946FEF7B0F802460B46DDE90C01A1
:10216000FEF7AAF852465B46FEF75EFA02460B46B9
:1021700040464946FEF7A0F8DDE90E23FEF754FA83
:10218000DDE90445CDE9060122462B4620462946D5
:10219000FEF74AFA72A3D3E9002304460D46FEF780
:1021A00043FA71A3D3E90023FEF788F822462B46B1
:1021B000FEF73AFA6EA3D3E90023FEF77FF8224632
:1021C0002B46FEF731FA6CA3D3E90023FEF776F82D
:1021D00022462B46FEF728FA69A3D3E90023FEF72F
:1021E0006DF822462B46FEF71FFA67A3D3E90023BA
:1021F000FEF764F82246804689462B46204629464B
:10220000FEF712FA02460B4640464946FEF70CFA24
:10221000524604460D465B46DDE90401FEF74EF8E2
:10222000DDE90623FEF700FA22462B46FEF746F8C4
:102230005246804689465B4650465946FEF7F4F9B9
:1022400000225D4BCDE90C01FEF738F842464B46C3
:10225000FEF734F800980D46044622462B465046B9
:102260005946FEF7E1F9002282468B46524B204642
:102270002946FEF721F8DDE90C23FEF71DF802469A
:102280000B4640464946FEF717F8DDE90423FEF702
:10229000CBF92246804689462B46DDE90601FEF74A
:1022A000C3F902460B4640464946FEF707F880460A
:1022B000894602460B4650465946FDF7FFFF0098F7
:1022C00033A3D3E9002304460D46FEF7ADF9524689
:1022D000CDE904015B4620462946FDF7EDFF0246A5
:1022E0000B4640464946FDF7E7FF2BA3D3E9002301
:1022F000FEF79AF92AA3D3E90023804689462046AF
:102300002946FEF791F902460B4640464946FDF73D
:10231000D5FFDDE91023FDF7D1FF80460B988946F4
:10232000FEF718F9424682468B464B46DDE904012A
:10233000FDF7C4FFDDE90823FDF7C0FF52465B4609
:10234000FDF7BCFF009852465B4604460D46FDF77C
:10235000B3FFDDE90823FDF7AFFFDDE904232DE03E
:10236000EF4E454A287ECA3F65DBC9934A86CD3F7A
:1023700001411DA96074D13F4D268F515555D53F60
:10238000FFAB6FDBB66DDB3F033333333333E33FF8
:10239000000000E009C7EE3FFD033ADC09C7EE3F4D
:1023A000F5015B14E02F3EBE000040438E98030011
:1023B00079B60B000000F03F00000840FDF77CFFFD
:1023C0000B46024649464046FDF776FF013E56EA77
:1023D000070382468B46DDE9020114BFD84BD94B77
:1023E0000022CDE9042302460B46CDE90023002359
:1023F0000093DDE9006732463B46FDF75DFF22466C
:102400002B46FEF711F9DDE9022380468946504646
:102410005946FEF709F902460B4640464946FDF784
:102420004DFF3246804689463B4620462946CDE947
:102430000289FEF7F9F80B46024606460F4640466B
:102440004946FDF73BFFC04B994204460D468A467C
:1024500040F3268101F13F4303F5E003034340F0DD
:10246000F781A3A3D3E90023DDE90201FDF726FFED
:102470003246804689463B4620462946FDF71CFFEA
:1024800002460B4640464946FEF75EFB002840F0F8
:10249000DF81A8464FEA2853A3F2FE324FF480139F
:1024A00013415344C3F30A52A84DA2F2FF3215411F
:1024B000C3F3130423EA05010020C2F1140B44F412
:1024C0008014BAF1000F02460B4644FA0BFB30466B
:1024D0003946B8BFCBF1000BFDF7EEFE02460B46C6
:1024E00006460F46DDE90201FDF7E8FE4FEA0B5A0A
:1024F0000D46002480A3D3E9002320462946FEF799
:1025000093F83246804689463B4620462946FDF7E9
:10251000D3FE02460B46DDE90201FDF7CDFE78A3AE
:10252000D3E90023FEF780F877A3D3E9002306461A
:102530000F4620462946FEF777F802460B463046FE
:102540003946FDF7BBFE06460F4602460B4640469F
:102550004946FDF7B3FE42464B4604460D46FDF79D
:10256000ABFE02460B4630463946FDF7A5FE224635
:10257000804689462B4620462946FEF755F864A337
:10258000D3E9002306460F46FEF74EF862A3D3E9CF
:102590000023FDF791FE32463B46FEF745F860A367
:1025A000D3E90023FDF78AFE32463B46FEF73CF8AE
:1025B0005DA3D3E90023FDF77FFE32463B46FEF7DD
:1025C00033F85BA3D3E90023FDF778FE32463B46A0
:1025D000FEF72AF802460B4620462946FDF76CFE18
:1025E00006460F4602460B4620462946FEF71CF8D3
:1025F0000022CDE900014FF0804330463946FDF717
:102600005BFE02460B46DDE90001FEF737F9424664
:1026100006460F464B4620462946FEF705F8424639
:102620004B46FDF74BFE02460B4630463946FDF75A
:1026300043FE22462B46FDF73FFE02460B46002096
:102640003F49FDF739FE8A44BAF5801FC0F22D815B
:102650005146DDE90423FDF7E7FFCDE900010DE474
:10266000002FFFF631AC4846594613B0BDE8F04F95
:1026700000F04CB9B8F1000FBFF6CFACDDE9023481
:10268000009304F100430193FFF7F8BB4A465B4611
:1026900000202B49FEF7F2F8CDE90001FFF7EEBB71
:1026A0002B4B21F00048984540F3E280294B0B4426
:1026B00003430AD132463B46FDF7FEFDDDE9022326
:1026C000FEF738FA00283FF4E5AE1BA3D3E9002358
:1026D000DDE90401FDF7A8FF17A3D3E90023FDF707
:1026E000A3FFCDE90001FFF7C9BB00BFAFF3008036
:1026F000FE822B654715973C00000000432EE63F05
:10270000EF39FAFE422EE63F396CA80C615C20BE20
:10271000D0A4BE726937663EF16BD2C541BDBB3EE7
:102720002CDE25AF6A56113F93BDBE166CC1663FC5
:102730003E5555555555C53F59F3F8C21F6EA50175
:102740000000F03F0000F0BFFFFF8F40FFFF0F00D1
:10275000FFCB904000346F3FBCF1000F40F0918000
:10276000C3F1140345FA03F202FA03F3AB4200F09B
:10277000A0806646FFF79CBB00220023CDE908231A
:1027800097E44FF0000C78E45B4B9C427FF741AC40
:102790005A4B9C423FF7BBABDDE900010022574B8F
:1027A000FDF78AFD46A3D3E9002304460D46FDF755
:1027B0003BFF45A3D3E9002382468B4620462946AA
:1027C000FDF732FF0022CDE900014D4B204629469E
:1027D000FDF72AFF02460B463DA1D1E90001FDF7B6
:1027E0006BFD22462B46FDF71FFF02460B460020DD
:1027F0004449FDF761FD2246804689462B46204626
:102800002946FDF711FF02460B4640464946FDF7B3
:102810000BFF31A3D3E90023FDF706FF02460B4669
:10282000DDE90001FDF748FD02460B46804689467A
:1028300050465946FDF742FD002004460D465246DB
:102840005B46BBE5DDE9002310461946FFF7D8BB20
:1028500023A3D3E90023DDE90401FDF7E5FE20A36E
:10286000D3E90023FDF7E0FECDE90001FFF706BB49
:10287000244B98453FF70EAEDDE900239246934680
:1028800037E60026FFF720BB17A3D3E90023CDE9E5
:10289000082317A3D3E90023CDE910231A4B002204
:1028A0004FF48025CDE906230AE45A4600F090F95A
:1028B000CFE602F00102C2F10206FFF7F9BA00BF4B
:1028C000000000604715F73F44DF5DF80BAE543E53
:1028D000555555555555D53FFE822B654715F73F44
:1028E0009C7500883CE4377E0000004003B8E23F5E
:1028F00006D0CF43EBFD4C3EFEFFEF3F0000F03F24
:102900000000D03F0000E03F0000F83F5F4A8A43EC
:102910002DE9F0410D46074600F0948000290B4652
:102920000446064654DD0F1500F0A780C3F31303D9
:10293000A7F2FF3743F48013F20FF80702EB4303CB
:102940004FEA460503D5ED0F05EB4303B50000261E
:102950007F10B44616224FF400110CEB0100984290
:102960004FEAD5744FEA450503DC1B1A00EB010C56
:102970000E44013A04EB43034FEA5101EDD11046F6
:10298000964620244FF0004209E052D05B00013C03
:1029900003EBD5734FEA52024FEA450537D0634542
:1029A00002EB0E01F1DD002901EB020E0ADBE0462D
:1029B000A3EB0C03A94288BF03F1FF336D1A104447
:1029C000C446E3E7BEF1000FF1DB0CF10108EFE7CD
:1029D00021F00042024329D0002945D10146CA0A0C
:1029E000153B4905002AFAD012F4801001D048E0C6
:1029F00030465200D40200F10106F9D5C6F1200498
:102A000001FA06F6E1401F1A41EA02038EE72B4362
:102A100024D14408731003F17F53F20703F5001328
:102A200048BF44F0004403EB075127463846BDE851
:102A3000F081A942AAD8002901EB020EC2DB984618
:102A40000023BBE702460B46FDF7EEFD3A462B4658
:102A5000FDF734FC07463846BDE8F081411C16BF3F
:102A6000421C01365408D5E70246FDF725FC024614
:102A70000B46FDF703FF0746D8E71A4621463B46BB
:102A8000B2E70E4620244FF0FF30BBE70000F07F96
:102A900021F000431946704741F0004101F58010D4
:102AA000C00F70470020704700200149704700BFE9
:102AB0000000F87F2DE9F041C1F30A57A7F2FF3576
:102AC000132D82B002460B460C464FEAD1780646DB
:102AD00033DC002D4EDB3B49294103EA0100104362
:102AE00026D049080B4052EA03060CD04FF480234D
:102AF000132D24EA010143FA05F444EA01040CBF52
:102B00004FF000460026304901EBC8082346D8E9BB
:102B10000045324620462946FDF7D0FBCDE90001AD
:102B200022462B46DDE90001FDF7C6FB02460B46B7
:102B30001046194602B0BDE8F081332D07DDB5F52A
:102B4000806FF5D1FDF7BAFB02460B46F0E7A7F21E
:102B500013474FF0FF31F9400842E9D049080842D5
:102B6000D1D04FF0804320EA010143FA07F741EA50
:102B70000706C8E721F000410143D9D0C3F3130190
:102B800001434E42104D0E43360B05EBC8055C0C5D
:102B900006F40023D5E90067640443EA04010B4608
:102BA00030463946FDF78AFBCDE9000132463B4607
:102BB000DDE90001FDF780FB21F00041024641EA1A
:102BC000C873B5E7FFFF0F00382E000000000000BB
:102BD000F8B5C1F30A5304460D460E4617460BBB23
:102BE00021F00046034633431BD0354B0022FDF74E
:102BF0001BFD344B9F4204460D4635DBC1F30A539F
:102C00000E46363B3B4440F2FE72934232DC002BD0
:102C100011DD26F0FF4626F4E00646EA035520467D
:102C20002946F8BD40F2FF729342EBD102460B46B3
:102C3000FDF744FBF8BD13F1350F28DA4CF25033A1
:102C40009F4222462B460ADD19A1D1E9000100F07E
:102C50003DF817A3D3E90023FDF7E6FCF8BD16A164
:102C6000D1E9000100F032F813A3D3E90023FDF706
:102C7000DBFCF8BD22462B460DA1D1E9000100F096
:102C800025F80BA3D3E90023FDF7CEFCF8BD26F011
:102C9000FF4626F4E006363346EA03552046294629
:102CA0000022094BFDF7C0FCF8BD00BFAFF3008068
:102CB0009C7500883CE4377E59F3F8C21F6EA5016D
:102CC00000005043B03CFFFF0000903C03F0004385
:102CD00021F0004242EA0301704700BF014B18682F
:102CE000704700BF24000020024B13B1024800F0DF
:102CF00005B8704700000000092D000000230146C0
:102D00001A46184600F01EB838B50A4C0A4D641B26
:102D1000A4100AD004F18043013B05EB8305013C7C
:102D200055F804399847002CF9D1BDE8384000F037
:102D30006FB800BF0000000000000000704700BF37
:102D4000704700BF2DE9F8432B4D0646286898468A
:102D50000F469146FFF7F2FF284B1C68D4F8483124
:102D6000002B3DD05A681F2A0DDC02F1010C16BB66
:102D70000232C3F804C0286843F82270FFF7E0FF6E
:102D80000020BDE8F8831E4B7BB34FF4C870AFF34F
:102D90000080034648B3D4F848210021C0E900214F
:102DA0004FF0010CC4F848010A46C0F88811C0F879
:102DB0008C11002EDCD003EB82010124C1F8889035
:102DC000D3F8880194402043022EC3F88801C1F84B
:102DD0000881CDD1D3F88C110C43C3F88C41C7E7DF
:102DE00004F5A673C4F84831BCE72868FFF7A8FFCC
:102DF0004FF0FF30C5E700BF50040020482E000010
:102E00000000000095020000E92C0000F8B500BFAA
:042E1000F8B500BF52
:102E180020202020666D6F6400000000706F77002E
:102E2800000000000000000000000000000000801A
:102E3800000000000000304300000000000030C324
:042E4800280000203E
:102E4C003132332B3435362D3738392E3D3044530F
:102E5C003132332A3435362F3738395E3D304353CF
:102E6C0001000000280000200000000014030020D6
:102E7C007C030020E40300200000000000000000A0
:102E8C000000000000000000000000000000000036
:102E9C000000000000000000000000000000000026
:102EAC000000000000000000000000000000000016
:102EBC000000000000000000000000000000000006
:102ECC0000000000000000000000000000000000F6
:102EDC0000000000000000000000000000000000E6
:102EEC0000000000000000000000000000000000D6
:102EFC0000000000000000000000000000000000C6
:102F0C0000000000000000000000000000000000B5
:102F1C0001000000000000000E33CDAB34126DE652
:102F2C00ECDE05000B0000000000000000000000BB
:102F3C000000000000000000000000000000000085
:102F4C000000000000000000000000000000000075
:102F5C000000000000000000000000000000000065
:102F6C000000000000000000000000000000000055
:04329C007406002094
:040000030000172DB5
:00000001FF
